:020000040800F2
:100000007806002499030008C11E0008D91D0008C5
:10001000B91E0008A9040008192200080000000009
:10002000000000000000000000000000411F000868
:10003000B104000800000000391F0008A11F0008DB
:10004000B7030008B7030008B7030008B7030008A8
:10005000B7030008B7030008B7030008B703000898
:10006000B7030008B7030008B7030008B703000888
:10007000B7030008B7030008B7030008B703000878
:10008000B7030008B7030008B7030008B703000868
:10009000B7030008B7030008B7030008B703000858
:1000A000B7030008B7030008B7030008B703000848
:1000B000B7030008B7030008B7030008B703000838
:1000C000B7030008B7030008B7030008B703000828
:1000D000B7030008B7030008B7030008B703000818
:1000E000B7030008B703000800000000B7030008CA
:1000F000B7030008B7030008B7030008B7030008F8
:10010000B7030008B7030008B7030008B7030008E7
:10011000B7030008B7030008B7030008B7030008D7
:10012000B7030008B7030008B7030008B7030008C7
:10013000B7030008B7030008B7030008B7030008B7
:1001400000000000000000000000000000000000AF
:10015000B7030008B7030008B7030008B703000897
:10016000B7030008B7030008B7030008B703000887
:10017000B7030008B7030008B70300080000000039
:10018000B7030008B7030008B7030008B703000867
:10019000B7030008B7030008B7030008B703000857
:1001A000B7030008B7030008B70300080000000009
:1001B000B7030008B7030008B7030008B703000837
:1001C000B7030008B70300080000000000000000AB
:1001D0000000000000000000B7030008000000005D
:1001E000000000000000000000000000000000000F
:1001F0000000000000000000B7030008B70300087B
:10020000B7030008B703000800000000B7030008A8
:10021000B7030008B7030008B7030008B7030008D6
:10022000B703000800000000B7030008000000004A
:10023000B7030008B703000800000000B703000878
:10024000B7030008B7030008B7030008B7030008A6
:10025000B7030008B7030008B7030008B703000896
:10026000B7030008B7030008B7030008B703000886
:10027000B7030008B7030008B70300080000000038
:10028000B7030008B7030008B7030008B703000866
:1002900000000000B7030008B703000800000000DA
:1002A00000000000B7030008B7030008B703000808
:1002B000B7030008B7030008B7030008B703000836
:1002C000B7030008B7030008B703000800F002F8FE
:1002D00000F052F814A696E8000CB244B344DA4594
:1002E00001D100F049F8BAE80F000FA696E83000F7
:1002F000A5EB040504EB0607AAEB0704A7F1010729
:100300004FEA15154FEA3414A4F10104AC4201D3AD
:1003100000F032F813F0010F18BFFB1A43F001038D
:1003200000F001F8DBE71847D81F0000F81F0000B5
:10033000103A24BF78C878C1FAD8520724BF30C811
:1003400030C144BF04680C60704700007047000073
:100350000023002400250026103A28BF78C1FBD8CE
:10036000520728BF30C148BF0B6070471FB501F06E
:10037000B1FF1FBD10B510BD00F05CF81146FFF7CE
:10038000F5FF01F099FF00F07AF803B4FFF7F2FFF0
:1003900003BC00F081F800000A4880470A48804703
:1003A0000A480047FEE7FEE7FEE7FEE7FEE7FEE756
:1003B000FEE7FEE7FEE7FEE705480649064A074B6B
:1003C00070470000C9040008B1200008CD020008F1
:1003D00078000024780600247802002478020024A3
:1003E0004FF0000200B5134694469646203922BFCE
:1003F000A0E80C50A0E80C50B1F12001BFF4F7AF19
:10040000090728BFA0E80C5048BF0CC05DF804EBFA
:10041000890028BF40F8042B08BF704748BF20F868
:10042000022B11F0804F18BF00F8012B7047704766
:1004300070477047754600F02BF8AE4605006946D8
:10044000534620F00700854618B020B5FFF7B4FFEB
:10045000BDE820404FF000064FF000074FF00008C5
:100460004FF0000BAC46ACE8C009ACE8C009ACE802
:10047000C009ACE8C00921F007018D46704710B5EE
:100480000446AFF300802046BDE81040FFF77DBF73
:10049000004870471000002401491820ABBEFEE759
:1004A0002600020070470000FFE7FEE700000000A2
:1004B000704700000000000081B0EFF3108072B6BA
:1004C0000090FFE7FEE7000044F60C01C5F60201CC
:1004D000086840F002000860FFE744F60400C5F633
:1004E000020000688004002801D4FFE7F5E77047A8
:1004F0008FB00E900D9100200C908020C5F600006A
:100500000990FFE70D9800680C99C840002800F09A
:10051000C181FFE70D9800680C9A012191400840C5
:100520000B900B98002800F0B181FFE70D98406810
:1005300000F00300012807D0FFE70D98406800F0A5
:10054000030002282FD1FFE70E9880680A900C98CC
:100550004100032000FA01F10A9888430A900D989F
:10056000C0680C99490000FA01F10A9808430A9002
:100570000A980E9988600E9840680A900C9901209C
:1005800000FA01F10A9888430A900D984068C0F378
:1005900000100C9900FA01F10A9808430A900A9891
:1005A0000E994860FFE70D98406800F003000328AB
:1005B00018D0FFE70E98C0680A900C9841000320FD
:1005C00000FA01F10A9888430A900D9880680C9906
:1005D000490000FA01F10A9808430A900A980E9916
:1005E000C860FFE70D98406800F00300022826D19C
:1005F000FFE70E980C996FF0030202EA51010844DC
:10060000006A0A900C9800F0070081000F2000FAA1
:1006100001F10A9888430A900D9800690C9901F03D
:100620000701890000FA01F10A9808430A900A9824
:100630000E990C9B02EA530211440862FFE70E98E0
:1006400000680A900C984100032000FA01F10A9812
:1006500088430A900D98406800F003000C99490007
:1006600000FA01F10A9808430A900A980E99086066
:100670000D9880798007002800F00781FFE7FFE7E9
:1006800044F2F440C5F60200016841F00201016045
:10069000006800F0020008900898FFE70C9820F02E
:1006A000030040F20841C5F6000140580A900C983A
:1006B00000F0030081000F2000FA01F10A9888433E
:1006C0000A900E980021C5F60201884203D1FFE787
:1006D000002007906CE00E9840F20041C5F6020140
:1006E000884203D1FFE7012006905EE00E9840F6B5
:1006F0000001C5F60201884203D1FFE70220059000
:1007000050E00E9840F60041C5F60201884203D140
:10071000FFE70320049042E00E9841F20001C5F685
:100720000201884203D1FFE70420039034E00E98D1
:1007300041F20041C5F60201884203D1FFE70520DE
:10074000029026E00E9841F60001C5F602018842AB
:1007500003D1FFE70620019018E00E9841F6004112
:10076000C5F60201884203D1FFE7072000900AE0A6
:100770000E9942F20042C5F602020A20914208BFD9
:1007800009200090FFE700980190FFE70198029090
:10079000FFE702980390FFE703980490FFE70498AF
:1007A0000590FFE705980690FFE706980790FFE79A
:1007B00007980C9901F00301890000FA01F10A98E9
:1007C00008430A900A980C9921F0030140F208426C
:1007D000C5F6000288504FF0B04000680A900B99AF
:1007E0000A9888430A900D988079C006002805D59C
:1007F000FFE70B990A9808430A90FFE70A984FF021
:10080000B04108600420C5F6000000680A900B990A
:100810000A9888430A900D9880798006002805D5AB
:10082000FFE70B990A9808430A90FFE70A9804210A
:10083000C5F600010860099840680A900B990A986B
:1008400088430A900D9880798007002805D5FFE736
:100850000B990A9808430A90FFE70A98099948609B
:10086000099800680A900B990A9888430A900D9895
:100870008079C00728B1FFE70B990A9808430A90CE
:10088000FFE70A9809990860FFE7FFE70C98013035
:100890000C9037E60FB0704783B00290ADF80610A9
:1008A000029840690090009ABDF8060002EA000133
:1008B000904340EA01400299886103B0704700000C
:1008C00082B00190ADF802108DF801209DF8010072
:1008D00028B1FFE7BDF802000199886105E0BDF885
:1008E0000200000401998861FFE702B07047000030
:1008F00040F27400C2F2004000687047000000003F
:1009000040F20800C2F20040027840F27401C2F2E4
:1009100000410868104408607047000000000000B3
:1009200080B582B0032000F017F900F0BDFB44F25F
:100930001842C5F602021168C1F3032342F2EE2108
:10094000C0F60001CB5C03F01F03D8400090009874
:10095000126802F00F02895C01F01F01C84040F2EA
:100960000401C2F200410860009840F20001C2F2A6
:10097000004108600F2000F013F820B1FFE70120CC
:100980008DF8070005E000F0BBF800208DF80700A7
:10099000FFE79DF8070002B080BD000000000000E6
:1009A00080B582B0009040F20800C2F200400078AA
:1009B00020B9FFE701208DF8070030E040F2000089
:1009C000C2F20040006840F20801C2F200410A7819
:1009D0004FF47A71B1FBF2F1B0FBF1F001F0F4F9F0
:1009E00020B1FFE701208DF8070018E000980F28DC
:1009F0000DD8FFE700994FF0FF30002200F094F887
:100A0000009840F20C01C2F20041086003E00120AE
:100A10008DF8070003E000208DF80700FFE79DF840
:100A2000070002B080BD000010B581B000900098B2
:100A300040784EF69851CEF2000108604EF6A05173
:100A4000CEF20001086820F00100086000984068BC
:100A50004EF69C52CEF200021060DDF800E09EF8E7
:100A60000C0000079EF80B2040EA02609EF8002070
:100A70009EF808309EF809C09EF80A4040EAC4403B
:100A80009EF80D4040EA84409EF80E4040EA444003
:100A90009EF80FE040EA0E4040EA0C2040EA430096
:100AA0001043086001B010BDBFF35F8F4EF62451B4
:100AB000CEF20001086820F4803008604EF69451B0
:100AC000CEF2000100200860704700000000000026
:100AD00081B00090009840F001004EF69451CEF2A3
:100AE000000108604EF62451CEF20001086840F47F
:100AF00080300860BFF34F8FBFF36F8F01B0704736
:100B000081B0FFE744F2F440C5F60200016841F00D
:100B100002010160006800F0020000900098FFE709
:100B200001B070470000000080B586B0ADF8160037
:100B30000491039201F074FB0290BDF9160001903C
:100B400002980499039A01F0BFF90146019801F057
:100B50006FFB06B080BD000080B582B001900198A7
:100B600001F08AFB02B080BD80B584B0029044F6EB
:100B70000C00C5F60200006800F004010020B0EB94
:100B8000910F13D1FFE744F60C00C5F60200006890
:100B900000F007000299884204D0FFE701208DF899
:100BA0000F002EE000208DF80F002AE044F60C0123
:100BB000C5F60201086820F00700029A1043086099
:100BC000FFF796FE0190FFE744F60400C5F6020029
:100BD000006800F400510020B0EB513F0DD1FFE759
:100BE000FFF786FE0199401AB0F57A7F04D9FFE736
:100BF00001208DF80F0004E0E6E700208DF80F00DB
:100C0000FFE79DF80F0004B080BD00000000000069
:100C100080B586B004900391049820B9FFE70120C5
:100C20008DF817003CE2039842F20001C5F2002162
:100C3000096801F00F01884216D9FFE742F200006F
:100C4000C5F20020016821F00F01039A11430160F1
:100C5000006800F00F000399884204D0FFE70120EC
:100C60008DF817001CE2FFE7049800784007002881
:100C700019D5FFE70498006944F21841C5F602014E
:100C8000096801F0700188420CD9FFE744F218416D
:100C9000C5F60201086820F07000049A126910433A
:100CA0000860FFE7FFE7049800780007002819D5DF
:100CB000FFE70498406944F21C41C5F60201096847
:100CC00001F0700188420CD9FFE744F21C41C5F6DF
:100CD0000201086820F07000049A5269104308600D
:100CE000FFE7FFE704980078C006002819D5FFE762
:100CF0000498806944F21C41C5F60201096801F4B8
:100D0000E06188420CD9FFE744F21C41C5F60201BC
:100D1000086820F4E060049A926910430860FFE7D5
:100D2000FFE7049800788006002819D5FFE70498AB
:100D3000C06944F22041C5F60201096801F0700162
:100D400088420CD9FFE744F22041C5F60201086849
:100D500020F07000049AD26910430860FFE7FFE7B3
:100D6000049800788007002819D5FFE70498C06828
:100D700044F21841C5F60201096801F00F018842EA
:100D80000CD9FFE744F21841C5F60201086820F0CB
:100D90000F00049AD26810430860FFE7FFE7049849
:100DA0000078C007002800F08C80FFE744F218416B
:100DB000C5F60201086820F47060049A9268104336
:100DC000086004984068022811D1FFE744F200400F
:100DD000C5F60200006800F400310020B0EB514F6E
:100DE00004D1FFE701208DF8170059E13EE0049897
:100DF0004068032811D1FFE744F20040C5F6020025
:100E0000006800F000710020B0EB516F04D1FFE7E3
:100E100001208DF8170043E127E00498406801287D
:100E200011D1FFE744F20040C5F60200006800F46B
:100E300080710020B0EB112F04D1FFE701208DF865
:100E400017002DE110E044F20040C5F602000068F2
:100E500000F004010020B0EB910F04D1FFE7012066
:100E60008DF817001CE1FFE7FFE7FFE744F21041B0
:100E7000C5F60201086820F00700049A5268104382
:100E80000860FFF735FD0190FFE744F21040C5F61A
:100E90000200006800F0380004994968B0EBC10F07
:100EA0000ED0FFE7FFF724FD0199401A41F2893186
:100EB000884204D3FFE703208DF81700F0E0E4E751
:100EC000FFE7049800788007002819D5FFE7049809
:100ED000C06844F21841C5F60201096801F00F012B
:100EE00088420CD2FFE744F21841C5F602010868B7
:100EF00020F00F00049AD26810430860FFE7FFE774
:100F0000039842F20001C5F20021096801F00F01C7
:100F1000884216D2FFE742F20000C5F200200168C5
:100F200021F00F01039A11430160006800F00F00E7
:100F30000399884204D0FFE701208DF81700AFE045
:100F4000FFE7049800784007002819D5FFE70498C8
:100F5000006944F21841C5F60201096801F0700108
:100F600088420CD2FFE744F21841C5F60201086836
:100F700020F07000049A126910430860FFE7FFE751
:100F8000049800780007002819D5FFE70498406905
:100F900044F21C41C5F60201096801F07001884263
:100FA0000CD2FFE744F21C41C5F60201086820F0AC
:100FB0007000049A526910430860FFE7FFE7049845
:100FC0000078C006002819D5FFE70498806944F22C
:100FD0001C41C5F60201096801F4E06188420CD2A7
:100FE000FFE744F21C41C5F60201086820F4E06006
:100FF000049A926910430860FFE7FFE704980078BD
:101000008006002819D5FFE70498C06944F2204102
:10101000C5F60201096801F0700188420CD2FFE7B1
:1010200044F22041C5F60201086820F07000049ADD
:10103000D26910430860FFE7FFE700F035F844F29B
:101040001842C5F602021168C1F3032342F2EE21F1
:10105000C0F60001CB5C03F01F03D840009000985D
:10106000126802F00F02895C01F01F01C84040F2D3
:101070000401C2F200410860009840F20001C2F28F
:101080000041086040F20C00C2F200400068FFF727
:1010900087FC8DF80B009DF80B008DF81700FFE71B
:1010A0009DF8170006B080BD8AB044F21040C5F626
:1010B0000200006800F0380001460191182800F293
:1010C0005F810199DFE811F019005C015C015C01AE
:1010D0005C015C015C015C013A005C015C015C014B
:1010E0005C015C015C015C0140005C015C015C0135
:1010F0005C015C015C015C01460044F20040C5F605
:101100000200006800F020010020B0EB511F0ED05B
:10111000FFE744F20040C5F602000068C0F3C101D9
:1011200049F20000C0F2D030C840029005E049F218
:101130000000C0F2D0300290FFE727E140F6001037
:10114000C0F23D00029021E147F64000C0F27D1060
:1011500002901BE144F22840C5F60200016801F04C
:10116000030108910068C0F30510079044F22C4079
:10117000C5F60200006800F001000690069844F2EF
:101180003441C5F60201096889B2C908484300EE36
:10119000100AB8EE400A8DED040A0798002800F006
:1011A000EB80FFE70898009048B1FFE7009801281E
:1011B00065D0FFE70098022800F08380A3E044F2A6
:1011C0000040C5F60200006800F020010020B0EBEE
:1011D000511F31D0FFE744F20040C5F6020000681D
:1011E000C0F3C10149F20000C0F2D030C840059000
:1011F0009DED050AB8EE400A9DED071AB8EE411ABA
:1012000080EE010A44F23040C5F6020000686FF338
:101210005F2001EE100AB8EE411A9DED042A9FED01
:101220005E3A02EE031AB7EE002A31EE021A20EE01
:10123000010A8DED030A21E09DED070AB8EE401A80
:101240009FED570A80EE010A44F23040C5F60200D5
:1012500000686FF35F2001EE100AB8EE411A9DEDB1
:10126000042A9FED4D3A02EE031AB7EE002A31EE42
:10127000021A20EE010A8DED030AFFE765E09DEDFD
:10128000070AB8EE401A9FED450A80EE010A44F2C3
:101290003040C5F6020000686FF35F2001EE100ACF
:1012A000B8EE411A9DED042A9FED3B3A02EE031A77
:1012B000B7EE002A31EE021A20EE010A8DED030A84
:1012C00043E09DED070AB8EE401A9FED320A80EE2A
:1012D000010A44F23040C5F6020000686FF35F2057
:1012E00001EE100AB8EE411A9DED042A9FED2A3A4C
:1012F00002EE031AB7EE002A31EE021A20EE010ABE
:101300008DED030A21E09DED070AB8EE401A9FED2E
:10131000230A80EE010A44F23040C5F6020000685C
:101320006FF35F2001EE100AB8EE411A9DED042A1A
:101330009FED193A02EE031AB7EE002A31EE021AB7
:1013400020EE010A8DED030AFFE744F23040C5F6B6
:101350000200006881B2012000EB512009909DED50
:10136000030A9DED091AB8EE411A80EE010ABCEE9F
:10137000C00A8DED020A02E000200290FFE705E0BE
:1013800040F60010C0F23D000290FFE702980AB05C
:10139000704700BF20BCBE4B000000390024744AD7
:1013A0000024744C0000000080B58CB00A900A98AC
:1013B00028B9FFE701208DF82F0000F001BD0A9841
:1013C0000078C007002800F0B980FFE744F2104021
:1013D000C5F60200006800F03800069044F228408C
:1013E000C5F6020000680590069810280AD0FFE7AD
:1013F000069818281CD1FFE7059800F00300022882
:1014000016D1FFE744F20040C5F60200006800F480
:1014100000310020B0EB514F09D0FFE70A98406837
:1014200028B9FFE701208DF82F0000F0C9BC84E047
:10143000FFE70A984068B0F5803F09D1FFE744F222
:101440000041C5F60201086840F48030086032E0CF
:101450000A98406868B9FFE744F20041C5F6020106
:10146000086820F480300860086820F48020086054
:1014700020E00A984068B0F5A02F0DD1FFE744F2B4
:101480000041C5F60201086840F480200860086841
:1014900040F4803008600CE044F20041C5F60201DF
:1014A000086820F480300860086820F48020086014
:1014B000FFE7FFE7FFE7FFE70A984068F0B1FFE7C3
:1014C000FFF716FA0990FFE744F20040C5F6020064
:1014D000006800F400310020B0EB514F0DD1FFE760
:1014E000FFF706FA0999401A652805D3FFE703209C
:1014F0008DF82F0000F064BCE6E71DE0FFF7F8F977
:101500000990FFE744F20040C5F60200006800F4CD
:1015100000310020B0EB514F0DD0FFE7FFF7E8F9A5
:101520000999401A652805D3FFE703208DF82F009D
:1015300000F046BCE6E7FFE7FFE7FFE70A98007820
:101540008007002840F1C580FFE744F21040C5F64F
:101550000200006800F03800049044F22840C5F60C
:10156000020000680390049850B1FFE7049818281F
:1015700050D1FFE79DF80C00800700284AD1FFE713
:1015800044F20040C5F60200006800F004010020AB
:10159000B0EB910F09D0FFE70A98C06828B9FFE7C0
:1015A00001208DF82F0000F00BBC44F20041C5F67D
:1015B0000201086820F019000A9AD26810430860F6
:1015C000FFF796F90990FFE744F20040C5F60200E4
:1015D000006800F004010020B0EB910F0CD1FFE790
:1015E000FFF786F90999401A032804D3FFE703207F
:1015F0008DF82F00E4E3E7E744F20441C5F6020169
:10160000086820F0FE400A9A126940EA0260086009
:10161000FFE75DE00A98C068A0B3FFE744F200412D
:10162000C5F60201086820F019000A9AD268104332
:101630000860FFF75DF90990FFE744F20040C5F646
:101640000200006800F004010020B0EB910F0CD103
:10165000FFE7FFF74DF90999401A032804D3FFE784
:1016600003208DF82F00ABE3E7E744F20441C5F611
:101670000201086820F0FE400A9A126940EA0260FE
:10168000086024E044F20041C5F60201086820F039
:1016900001000860FFF72CF90990FFE744F20040D1
:1016A000C5F60200006800F004010020B0EB910FC5
:1016B0000CD0FFE7FFF71CF90999401A032804D35F
:1016C000FFE703208DF82F007AE3E7E7FFE7FFE766
:1016D000FFE70A980078C006002840F1A080FFE7E5
:1016E00044F21040C5F60200006800F03800029095
:1016F00044F22840C5F602000068019002980828CC
:101700000AD0FFE7029818282BD1FFE7019800F0D4
:101710000300012825D1FFE744F20040C5F602008E
:10172000006800F480710020B0EB112F09D0FFE7B2
:101730000A98C069802804D0FFE701208DF82F00A7
:101740003EE3FFE744F20C41C5F60201086820F0D1
:101750007C500A9A126A40EA02600860FFE7FFE7DD
:101760005CE00A98C06998B3FFE744F20041C5F60F
:101770000201086840F080000860FFF7B9F809909E
:10178000FFE744F20040C5F60200006800F48071F3
:101790000020B0EB112F0CD1FFE7FFF7A9F8099952
:1017A000401A032804D3FFE703208DF82F0007E336
:1017B000E7E7FFE744F20C41C5F60201086820F0B4
:1017C0007C500A9A126A40EA02600860FFE724E04F
:1017D00044F20041C5F60201086820F0800008606C
:1017E000FFF786F80990FFE744F20040C5F60200D3
:1017F000006800F480710020B0EB112F0CD0FFE7DF
:10180000FFF776F80999401A032804D3FFE703206D
:101810008DF82F00D4E2E7E7FFE7FFE7FFE70A983C
:101820000078000700284FD5FFE70A98406928B3E1
:10183000FFE744F27441C5F60201086840F0010078
:101840000860FFF755F80990FFE744F27440C5F6C9
:101850000200006800F002010020B0EB510F0CD133
:10186000FFE7FFF745F80999401A032804D3FFE77B
:1018700003208DF82F00A3E2E7E724E044F274414F
:10188000C5F60201086820F001000860FFF730F893
:101890000990FFE744F27440C5F60200006800F0CA
:1018A00002010020B0EB510F0CD0FFE7FFF720F84A
:1018B0000999401A032804D3FFE703208DF82F006D
:1018C0007EE2E7E7FFE7FFE70A9800788006002856
:1018D0004FD5FFE70A98806928B3FFE744F200413B
:1018E000C5F60201086840F480500860FFF700F870
:1018F0000990FFE744F20040C5F60200006800F4DA
:1019000000510020B0EB513F0CD1FFE7FEF7F0FF94
:101910000999401A032804D3FFE703208DF82F000C
:101920004EE2E7E724E044F20041C5F60201086810
:1019300020F480500860FEF7DBFF0990FFE744F2D7
:101940000040C5F60200006800F400510020B0EB32
:10195000513F0CD0FFE7FEF7CBFF0999401A03284F
:1019600004D3FFE703208DF82F0029E2E7E7FFE724
:10197000FFE70A9800784007002840F1A780FFE7BA
:1019800044F60001C5F60201086840F48070086062
:10199000FEF7AEFF0990FFE744F60000C5F602002F
:1019A0000068C00500280CD4FFE7FEF7A1FF0999E5
:1019B000401A652804D3FFE703208DF82F00FFE1CC
:1019C000EAE7FFE70A988068012809D1FFE744F2B7
:1019D0007041C5F60201086840F00100086031E07E
:1019E0000A98806868B9FFE744F27041C5F60201C1
:1019F000086820F001000860086820F00400086012
:101A00001FE00A98806805280DD1FFE744F2704175
:101A1000C5F60201086840F004000860086840F05C
:101A2000010008600CE044F27041C5F6020108684C
:101A300020F001000860086820F004000860FFE75B
:101A4000FFE7FFE7FFE70A988068F8B1FFE7FEF7D6
:101A50004FFF0990FFE744F27040C5F602000068AE
:101A600000F002010020B0EB510F0ED1FFE7FEF7AE
:101A70003FFF0999401A41F28931884204D3FFE7B8
:101A800003208DF82F009BE1E5E71EE0FEF730FF15
:101A90000990FFE744F27040C5F60200006800F0CC
:101AA00002010020B0EB510F0ED0FFE7FEF720FF40
:101AB0000999401A41F28931884204D3FFE7032093
:101AC0008DF82F007CE1E5E7FFE7FFE70A98406A21
:101AD000002800F07181FFE744F21040C5F60200D3
:101AE000006800F03800182800F0E080FFE70A984E
:101AF000406A022840F0B480FFE744F20041C5F696
:101B00000201086820F080700860FEF7F1FE09907D
:101B1000FFE744F20040C5F60200006800F00071E3
:101B20000020B0EB516F0CD0FFE7FEF7E1FE099902
:101B3000401A032804D3FFE703208DF82F003FE16C
:101B4000E7E7FFE744F22841C5F60201086840F2E2
:101B5000F33290430A9B9A6ADB6A42EA031210430B
:101B600008600A99086BD1F834C08B6BCA6B0138D6
:101B70006FF35F204FF60061CFF6FF7101EB4C2150
:101B800089B208440021CFF6FF7101EB034101F453
:101B9000FE0108444FF07F4101EB026101F0FE417C
:101BA000084444F23041C5F602010860FFE744F200
:101BB0002C41C5F602010091086820F00100086080
:101BC00044F23442C5F6020210684FF6F8739843A7
:101BD0000A9B9B6C40EAC3001060086820F00C0070
:101BE0000A9A126C10430860086820F002000A9AF2
:101BF000526C10430860086840F480300860086840
:101C000040F400300860086840F4802008600868EC
:101C100040F00100086044F20041C5F60201086886
:101C200040F080700860FEF763FE0990FFE744F221
:101C30000040C5F60200006800F000710020B0EB23
:101C4000516F0CD1FFE7FEF753FE0999401A0328A4
:101C500004D3FFE703208DF82F00B1E0E7E724E08D
:101C600044F20041C5F60201086820F08070086067
:101C7000FEF73EFE0990FFE744F20040C5F6020081
:101C8000006800F000710020B0EB516F0CD0FFE74E
:101C9000FEF72EFE0999401A032804D3FFE703201C
:101CA0008DF82F008CE0E7E7FFE784E044F228405E
:101CB000C5F602000068089044F23040C5F6020004
:101CC000006807900A98406A012837D0FFE7089813
:101CD00000F003000A99896A88422FD1FFE708982B
:101CE00000F47C710A98C06AB0EB111F26D1FFE79F
:101CF00007986FF35F200A99096B013988421DD15B
:101D0000FFE7BDF81C100A98406B0138B0EB512F6B
:101D100014D1FFE7079800F4FE010A98806B0138A0
:101D2000B0EB114F0AD1FFE7079800F0FE410A9887
:101D3000C06B0138B0EB116F04D0FFE701208DF8C4
:101D40002F003DE044F23440C5F60200006880B246
:101D5000C00808900A98806C0899884229D0FFE74B
:101D600044F22C41C5F60201086820F00100086029
:101D7000FEF7BEFD0990FFE7FEF7BAFD0999401A8C
:101D800008B9FFE7F8E744F23441C5F602010868F4
:101D90004FF6F87290430A9A926C40EAC2000860CB
:101DA00044F22C41C5F60201086840F001000860C9
:101DB000FFE7FFE7FFE7FFE700208DF82F00FFE7D1
:101DC0009DF82F000CB080BD80B582B001900198C5
:101DD00000F0BAF802B080BDFFE7FEE700000000A7
:101DE00080B586B000200190059004900390029089
:101DF000FEF75AFE019801218DF808108DF80900B0
:101E000003901F228DF8102087228DF811208DF865
:101E100012008DF813008DF814108DF815108DF840
:101E200016008DF8170002A8FEF7FEFD0420FEF74D
:101E30004FFE06B080BD000080B58AB0002009903A
:101E40000890079006900590FFE744F2E040C5F641
:101E50000200016841F080010160006800F080002C
:101E600004900498FFE7FFE744F2E040C5F6020063
:101E7000016841F040010160006800F040000390FB
:101E80000398FFE741F60000C5F6020002908021AA
:101E9000009100220192FEF713FD009A0199029829
:101EA0000592012206920791089105A9FEF720FBF1
:101EB0000AB080BD00000000FFE7FEE70000000060
:101EC000FFE7FEE70000000088B00790069105924A
:101ED000079800F0070004900498C0F10700052857
:101EE00003D3FFE70420019004E00498C0F1070049
:101EF0000190FFE70198039004980430062803D866
:101F0000FFE70020009003E0049803380090FFE70B
:101F10000098029006980399012202FA01F1013912
:101F20000840029B984005999A40013A11400843A5
:101F300008B070470000000070470000000000007B
:101F4000704700000000000080B582B0009000984B
:101F50000138B0F1807F03D3FFE70120019019E041
:101F6000009801384EF21401CEF2000108604FF0E3
:101F7000FF300F2100F05CF94EF21801CEF20001A3
:101F8000002008604EF21002CEF20002072111601C
:101F90000190FFE7019802B080BD00000000000042
:101FA00080B540F27002C2F200421088411C1180DC
:101FB000B0F57A7F0ED1FFE740F27001C2F2004126
:101FC0000020088041F60000C5F602008021FEF7DF
:101FD00063FCFFE7FEF794FC80BD000000000000FA
:101FE00080B59EB00BA84C21FEF7FAF900200190B5
:101FF0000A9009900890079006900590049003902D
:102000000220FEF7B1FDFFE70020029044F6180021
:10201000C5F60200016821F440410160006800F447
:10202000404002900298FFE7FFE744F61800C5F62B
:102030000200006800F40050B0F5005F01D0FFE737
:10204000F3E701210B914FF480300C9002201490A3
:10205000159016902C221792189119901A900C2016
:102060001B9000201C901D900BA8FFF79DF918B144
:10207000FFE7FEF721FAFFE73F20039003210491D9
:1020800000200590082006904020079008904FF40B
:10209000806209920A9003A8FEF7BAFD18B1FFE723
:1020A000FEF70AFAFFE71EB080BD00000000000046
:1020B0004EF68851CEF20001086840F470000860C6
:1020C00042F20000C5F20020006800F00F00062870
:1020D0000AD8FFE742F20001C5F200210868072292
:1020E00062F303000860FFE744F20041C5F6020115
:1020F000086840F00100086044F21042C5F6020290
:102100000020106008684EF67F52CEF6F62210408E
:10211000086042F20000C5F20020006800F00F00E5
:1021200008280AD3FFE742F20001C5F2002108683F
:10213000072262F303000860FFE744F21841C5F686
:1021400002010020086044F21C41C5F6020108604B
:1021500044F22041C5F60201086044F22842C5F667
:10216000020240F20021C0F20221116044F22C422E
:10217000C5F602020021C0F2FF11116044F23042A4
:10218000C5F6020240F28021C0F20111116044F252
:102190003442C5F60202106044F23842C5F602022B
:1021A000116044F23C42C5F60202106044F2404223
:1021B000C5F60202116044F24441C5F6020108600E
:1021C00044F20042C5F60202116821F48021116038
:1021D00044F26041C5F60201086044F2D440C5F6FD
:1021E00002000068C004002814D4FFE744F2D44180
:1021F000C5F60201086840F48050086044F200020D
:10220000C5F2002243F2D2001060086820F480502A
:102210000860FFE770470000FFE7FEE700000000EE
:102220004EF60C50CEF200000068C0F3022070475A
:1022300082B0ADF806000091BDF9060000280AD46E
:10224000FFE700980001BDF906104EF20042CEF201
:10225000000288540BE000980001BDF8061001F060
:102260000F014EF61452CEF200028854FFE702B07E
:10227000704700000000000083B00290029800F058
:10228000070000904EF60C51CEF200010868019054
:1022900001984FF6FF02104001900198009A40EA21
:1022A00002200022C0F2FA52104301900198086007
:1022B00003B070470000000080B582B0002001909C
:1022C000FFF78EFDFEF72CFBFFF78AFEFFF7B4FD4C
:1022D000FFE7FEE7F1EE100A4FF6FF71C0F2C031E2
:1022E00020EA010040F04070E1EE100A7047000063
:1022F00000000102030401020304060708090000AC
:102300002023000800000024100000003003000813
:102310003023000810000024680600005003000865
:102320000090D0030090D0030100000010000000D6
:04000005080002CD20
:00000001FF
